{
  "_format": "hh-sol-artifact-1",
  "contractName": "Login",
  "sourceName": "contracts/Login.sol",
  "abi": [
    {
      "inputs": [],
      "name": "checkuserRegistered",
      "outputs": [
        {
          "internalType": "bool",
          "name": "",
          "type": "bool"
        }
      ],
      "stateMutability": "view",
      "type": "function"
    },
    {
      "inputs": [],
      "name": "createUser",
      "outputs": [],
      "stateMutability": "nonpayable",
      "type": "function"
    },
    {
      "inputs": [],
      "name": "returnHash",
      "outputs": [
        {
          "internalType": "bytes32",
          "name": "",
          "type": "bytes32"
        }
      ],
      "stateMutability": "view",
      "type": "function"
    }
  ],
  "bytecode": "0x608060405234801561001057600080fd5b506102a0806100206000396000f3fe608060405234801561001057600080fd5b50600436106100415760003560e01c806325ad91ce1461004657806377dd28a1146100505780639d5b25921461006e575b600080fd5b61004e61008c565b005b6100586100e5565b6040516100659190610186565b60405180910390f35b610076610138565b60405161008391906101ba565b60405180910390f35b60016000803373ffffffffffffffffffffffffffffffffffffffff1673ffffffffffffffffffffffffffffffffffffffff16815260200190815260200160002060006101000a81548160ff021916908315150217905550565b60008060003373ffffffffffffffffffffffffffffffffffffffff1673ffffffffffffffffffffffffffffffffffffffff16815260200190815260200160002060009054906101000a900460ff16905090565b6000803360405160200161014c919061024f565b6040516020818303038152906040528051906020012090508091505090565b60008115159050919050565b6101808161016b565b82525050565b600060208201905061019b6000830184610177565b92915050565b6000819050919050565b6101b4816101a1565b82525050565b60006020820190506101cf60008301846101ab565b92915050565b600073ffffffffffffffffffffffffffffffffffffffff82169050919050565b6000610200826101d5565b9050919050565b60008160601b9050919050565b600061021f82610207565b9050919050565b600061023182610214565b9050919050565b610249610244826101f5565b610226565b82525050565b600061025b8284610238565b6014820191508190509291505056fea2646970667358221220ae34b94c5ca59e76170624abe9306e524db95a269dcd92eace6578320ae5bfaa64736f6c634300080b0033",
  "linkReferences": {},
  "deployedLinkReferences": {}
}